{
  "_format": "hh-sol-artifact-1",
  "contractName": "Pass3Manager",
  "sourceName": "contracts/Pass3Manager.sol",
  "abi": [
    {
      "inputs": [],
      "name": "get_credentials",
      "outputs": [
        {
          "components": [
            {
              "internalType": "string",
              "name": "user",
              "type": "string"
            },
            {
              "internalType": "string",
              "name": "password",
              "type": "string"
            }
          ],
          "internalType": "struct Pass3Manager.Pair",
          "name": "",
          "type": "tuple"
        }
      ],
      "stateMutability": "view",
      "type": "function"
    },
    {
      "inputs": [
        {
          "components": [
            {
              "internalType": "string",
              "name": "user",
              "type": "string"
            },
            {
              "internalType": "string",
              "name": "password",
              "type": "string"
            }
          ],
          "internalType": "struct Pass3Manager.Pair",
          "name": "_pair",
          "type": "tuple"
        }
      ],
      "name": "save_pair",
      "outputs": [],
      "stateMutability": "nonpayable",
      "type": "function"
    }
  ],
  "bytecode": "0x608060405234801561001057600080fd5b506108b2806100206000396000f3fe608060405234801561001057600080fd5b50600436106100365760003560e01c806307bb77cc1461003b578063cc5cd5a514610057575b600080fd5b61005560048036038101906100509190610466565b610075565b005b61005f6100e6565b60405161006c9190610572565b60405180910390f35b806000803373ffffffffffffffffffffffffffffffffffffffff1673ffffffffffffffffffffffffffffffffffffffff16815260200190815260200160002060008201518160000190816100c991906107aa565b5060208201518160010190816100df91906107aa565b5090505050565b6100ee610260565b6000803373ffffffffffffffffffffffffffffffffffffffff1673ffffffffffffffffffffffffffffffffffffffff168152602001908152602001600020604051806040016040529081600082018054610147906105c3565b80601f0160208091040260200160405190810160405280929190818152602001828054610173906105c3565b80156101c05780601f10610195576101008083540402835291602001916101c0565b820191906000526020600020905b8154815290600101906020018083116101a357829003601f168201915b505050505081526020016001820180546101d9906105c3565b80601f0160208091040260200160405190810160405280929190818152602001828054610205906105c3565b80156102525780601f1061022757610100808354040283529160200191610252565b820191906000526020600020905b81548152906001019060200180831161023557829003601f168201915b505050505081525050905090565b604051806040016040528060608152602001606081525090565b6000604051905090565b600080fd5b600080fd5b600080fd5b6000601f19601f8301169050919050565b7f4e487b7100000000000000000000000000000000000000000000000000000000600052604160045260246000fd5b6102dc82610293565b810181811067ffffffffffffffff821117156102fb576102fa6102a4565b5b80604052505050565b600061030e61027a565b905061031a82826102d3565b919050565b600080fd5b600080fd5b600080fd5b600067ffffffffffffffff821115610349576103486102a4565b5b61035282610293565b9050602081019050919050565b82818337600083830152505050565b600061038161037c8461032e565b610304565b90508281526020810184848401111561039d5761039c610329565b5b6103a884828561035f565b509392505050565b600082601f8301126103c5576103c4610324565b5b81356103d584826020860161036e565b91505092915050565b6000604082840312156103f4576103f361028e565b5b6103fe6040610304565b9050600082013567ffffffffffffffff81111561041e5761041d61031f565b5b61042a848285016103b0565b600083015250602082013567ffffffffffffffff81111561044e5761044d61031f565b5b61045a848285016103b0565b60208301525092915050565b60006020828403121561047c5761047b610284565b5b600082013567ffffffffffffffff81111561049a57610499610289565b5b6104a6848285016103de565b91505092915050565b600081519050919050565b600082825260208201905092915050565b60005b838110156104e95780820151818401526020810190506104ce565b60008484015250505050565b6000610500826104af565b61050a81856104ba565b935061051a8185602086016104cb565b61052381610293565b840191505092915050565b6000604083016000830151848203600086015261054b82826104f5565b9150506020830151848203602086015261056582826104f5565b9150508091505092915050565b6000602082019050818103600083015261058c818461052e565b905092915050565b7f4e487b7100000000000000000000000000000000000000000000000000000000600052602260045260246000fd5b600060028204905060018216806105db57607f821691505b6020821081036105ee576105ed610594565b5b50919050565b60008190508160005260206000209050919050565b60006020601f8301049050919050565b600082821b905092915050565b6000600883026106567fffffffffffffffffffffffffffffffffffffffffffffffffffffffffffffffff82610619565b6106608683610619565b95508019841693508086168417925050509392505050565b6000819050919050565b6000819050919050565b60006106a76106a261069d84610678565b610682565b610678565b9050919050565b6000819050919050565b6106c18361068c565b6106d56106cd826106ae565b848454610626565b825550505050565b600090565b6106ea6106dd565b6106f58184846106b8565b505050565b5b818110156107195761070e6000826106e2565b6001810190506106fb565b5050565b601f82111561075e5761072f816105f4565b61073884610609565b81016020851015610747578190505b61075b61075385610609565b8301826106fa565b50505b505050565b600082821c905092915050565b600061078160001984600802610763565b1980831691505092915050565b600061079a8383610770565b9150826002028217905092915050565b6107b3826104af565b67ffffffffffffffff8111156107cc576107cb6102a4565b5b6107d682546105c3565b6107e182828561071d565b600060209050601f8311600181146108145760008415610802578287015190505b61080c858261078e565b865550610874565b601f198416610822866105f4565b60005b8281101561084a57848901518255600182019150602085019450602081019050610825565b868310156108675784890151610863601f891682610770565b8355505b6001600288020188555050505b50505050505056fea26469706673582212202bddbe0a806ba21b3bb0ef9dcd0e366e73f18f4e9b103cf1ed9efc509d9d46a164736f6c63430008120033",
  "linkReferences": {},
  "deployedLinkReferences": {}
}