{
  "_format": "hh-sol-artifact-1",
  "contractName": "Pass3Manager",
  "sourceName": "contracts/Pass3Manager.sol",
  "abi": [
    {
      "inputs": [
        {
          "internalType": "string",
          "name": "url",
          "type": "string"
        }
      ],
      "name": "get_creds",
      "outputs": [
        {
          "components": [
            {
              "internalType": "string",
              "name": "user",
              "type": "string"
            },
            {
              "internalType": "string",
              "name": "password",
              "type": "string"
            }
          ],
          "internalType": "struct Pass3Manager.Pair",
          "name": "",
          "type": "tuple"
        }
      ],
      "stateMutability": "view",
      "type": "function"
    },
    {
      "inputs": [
        {
          "components": [
            {
              "internalType": "string",
              "name": "user",
              "type": "string"
            },
            {
              "internalType": "string",
              "name": "password",
              "type": "string"
            }
          ],
          "internalType": "struct Pass3Manager.Pair",
          "name": "_pair",
          "type": "tuple"
        },
        {
          "internalType": "string",
          "name": "url",
          "type": "string"
        }
      ],
      "name": "save_pair",
      "outputs": [],
      "stateMutability": "nonpayable",
      "type": "function"
    }
  ],
  "bytecode": "0x608060405234801561001057600080fd5b506109ca806100206000396000f3fe608060405234801561001057600080fd5b50600436106100365760003560e01c8063984ac0a81461003b578063d088fb7b1461006b575b600080fd5b61005560048036038101906100509190610421565b610087565b604051610062919061052d565b60405180910390f35b610085600480360381019061008091906105e1565b61021f565b005b61008f6102ad565b6000803373ffffffffffffffffffffffffffffffffffffffff1673ffffffffffffffffffffffffffffffffffffffff168152602001908152602001600020826040516100db9190610695565b9081526020016040518091039020604051806040016040529081600082018054610104906106db565b80601f0160208091040260200160405190810160405280929190818152602001828054610130906106db565b801561017d5780601f106101525761010080835404028352916020019161017d565b820191906000526020600020905b81548152906001019060200180831161016057829003601f168201915b50505050508152602001600182018054610196906106db565b80601f01602080910402602001604051908101604052809291908181526020018280546101c2906106db565b801561020f5780601f106101e45761010080835404028352916020019161020f565b820191906000526020600020905b8154815290600101906020018083116101f257829003601f168201915b5050505050815250509050919050565b816000803373ffffffffffffffffffffffffffffffffffffffff1673ffffffffffffffffffffffffffffffffffffffff1681526020019081526020016000208260405161026c9190610695565b9081526020016040518091039020600082015181600001908161028f91906108c2565b5060208201518160010190816102a591906108c2565b509050505050565b604051806040016040528060608152602001606081525090565b6000604051905090565b600080fd5b600080fd5b600080fd5b600080fd5b6000601f19601f8301169050919050565b7f4e487b7100000000000000000000000000000000000000000000000000000000600052604160045260246000fd5b61032e826102e5565b810181811067ffffffffffffffff8211171561034d5761034c6102f6565b5b80604052505050565b60006103606102c7565b905061036c8282610325565b919050565b600067ffffffffffffffff82111561038c5761038b6102f6565b5b610395826102e5565b9050602081019050919050565b82818337600083830152505050565b60006103c46103bf84610371565b610356565b9050828152602081018484840111156103e0576103df6102e0565b5b6103eb8482856103a2565b509392505050565b600082601f830112610408576104076102db565b5b81356104188482602086016103b1565b91505092915050565b600060208284031215610437576104366102d1565b5b600082013567ffffffffffffffff811115610455576104546102d6565b5b610461848285016103f3565b91505092915050565b600081519050919050565b600082825260208201905092915050565b60005b838110156104a4578082015181840152602081019050610489565b60008484015250505050565b60006104bb8261046a565b6104c58185610475565b93506104d5818560208601610486565b6104de816102e5565b840191505092915050565b6000604083016000830151848203600086015261050682826104b0565b9150506020830151848203602086015261052082826104b0565b9150508091505092915050565b6000602082019050818103600083015261054781846104e9565b905092915050565b600080fd5b600080fd5b60006040828403121561056f5761056e61054f565b5b6105796040610356565b9050600082013567ffffffffffffffff81111561059957610598610554565b5b6105a5848285016103f3565b600083015250602082013567ffffffffffffffff8111156105c9576105c8610554565b5b6105d5848285016103f3565b60208301525092915050565b600080604083850312156105f8576105f76102d1565b5b600083013567ffffffffffffffff811115610616576106156102d6565b5b61062285828601610559565b925050602083013567ffffffffffffffff811115610643576106426102d6565b5b61064f858286016103f3565b9150509250929050565b600081905092915050565b600061066f8261046a565b6106798185610659565b9350610689818560208601610486565b80840191505092915050565b60006106a18284610664565b915081905092915050565b7f4e487b7100000000000000000000000000000000000000000000000000000000600052602260045260246000fd5b600060028204905060018216806106f357607f821691505b602082108103610706576107056106ac565b5b50919050565b60008190508160005260206000209050919050565b60006020601f8301049050919050565b600082821b905092915050565b60006008830261076e7fffffffffffffffffffffffffffffffffffffffffffffffffffffffffffffffff82610731565b6107788683610731565b95508019841693508086168417925050509392505050565b6000819050919050565b6000819050919050565b60006107bf6107ba6107b584610790565b61079a565b610790565b9050919050565b6000819050919050565b6107d9836107a4565b6107ed6107e5826107c6565b84845461073e565b825550505050565b600090565b6108026107f5565b61080d8184846107d0565b505050565b5b81811015610831576108266000826107fa565b600181019050610813565b5050565b601f821115610876576108478161070c565b61085084610721565b8101602085101561085f578190505b61087361086b85610721565b830182610812565b50505b505050565b600082821c905092915050565b60006108996000198460080261087b565b1980831691505092915050565b60006108b28383610888565b9150826002028217905092915050565b6108cb8261046a565b67ffffffffffffffff8111156108e4576108e36102f6565b5b6108ee82546106db565b6108f9828285610835565b600060209050601f83116001811461092c576000841561091a578287015190505b61092485826108a6565b86555061098c565b601f19841661093a8661070c565b60005b828110156109625784890151825560018201915060208501945060208101905061093d565b8683101561097f578489015161097b601f891682610888565b8355505b6001600288020188555050505b50505050505056fea264697066735822122091b0b0ce7049802febd24e4514a06d82559abd2861fad860b1e761e339fa422564736f6c63430008120033",
  "linkReferences": {},
  "deployedLinkReferences": {}
}